:100000000C94B1020C94D9020C94D9020C94A0194E
:100010000C94A0190C94A0190C94D9020C94D90238
:100020000C94D9020C94D9020C94D9020C94181A8D
:100030000C94D9020C94D9020C94D9020C94D902D4
:100040000C94DF170C94D9020C944F180C942918B7
:100050000C94D9020C94D9020C94D9020C94D902B4
:100060000C9481180C94D9024E414E494E49545972
:10007000494E46CDCCCC3D0AD7233C17B7D1387773
:10008000CC2B329595E6241FB14F0A000020410089
:1000900000C84200401C4620BCBE4CCA1B0E5AAED3
:1000A000C59D7420467265713A20002C3030303086
:1000B0002C342C303030300D0A0041542B444D4F3D
:1000C00053455447524F55503D302C002020636F0C
:1000D0006E6E65637465640041542B444D4F434F0D
:1000E0004E4E4543540D0A00496E697420445241F6
:1000F00038313800436865636B73756D20666169DC
:100100006C2E20526573657474696E672E0052659B
:10011000616420454550524F4D0074696D656F759F
:1001200074008081828485868788898B8C8D8E8FF0
:100130009091929395969798999A9B9C9D9E9E9F3D
:10014000A0A1A2A3A4A4A5A6A7A7A8A9A9AAAAAB4F
:10015000ABACACADADAEAEAEAFAFAFAFAFB0B0B0BD
:10016000B0B0B0B0B0B0B0B0AFAFAFAFAFAEAEAE9A
:10017000ADADACACABABAAAAA9A9A8A7A7A6A5A4EC
:10018000A4A3A2A1A09F9E9E9D9C9B9A999897969E
:1001900095939291908F8E8D8C8B8988878685849C
:1001A0008281807F7E7C7B7A7978777574737271B7
:1001B000706F6E6D6B6A69686766656463626261C1
:1001C000605F5E5D5C5C5B5A59595857575656558F
:1001D0005554545353525252515151515150505001
:1001E0005050505050505050515151515152525204
:1001F000535354545555565657575859595A5B5C92
:100200005C5D5E5F60616262636465666768696ABF
:100210006B6D6E6F7071727374757778797A7B7CA1
:100220007E7F808386898C909396999C9FA2A5A8B7
:10023000ABAEB1B3B6B9BCBFC1C4C7C9CCCED1D3C4
:10024000D5D8DADCDEE0E2E4E6E8EAEBEDEFF0F167
:10025000F3F4F5F6F8F9FAFAFBFCFDFDFEFEFEFFFD
:10026000FFFFFFFFFFFFFEFEFEFDFDFCFBFAFAF9BC
:10027000F8F6F5F4F3F1F0EFEDEBEAE8E6E4E2E0AE
:10028000DEDCDAD8D5D3D1CECCC9C7C4C1BFBCB9A6
:10029000B6B3B1AEABA8A5A29F9C999693908C895A
:1002A0008683807D7A7774706D6A6764615E5B585F
:1002B00055524F4D4A4744413F3C393734322F2D38
:1002C0002B28262422201E1C1A1816151311100F75
:1002D0000D0C0B0A080706060504030302020201BF
:1002E00001010101010102020203030405060607E0
:1002F000080A0B0C0D0F1011131516181A1C1E20CE
:10030000222426282B2D2F323437393C3F414447B5
:100310004A4D4F5255585B5E6164676A6D707477E1
:100320007A7D00000000230026002900466F756ECC
:10033000643A20004661696C656420746F206669C8
:100340006E6420436F6E6669672054797065207013
:100350006172616D2E0052656164696E672E2E2E8A
:100360000045786974696E6720636F6E66696720FF
:100370006D6F64652E2E2E0050726573733A2000E7
:100380004941543A2000426174743A200020616E61
:100390006E756E00457865726369736500546573A8
:1003A00074205472616E736D697400526573657464
:1003B0002064656661756C7473004661696C757262
:1003C0006520746F207265616420696E20636F6EB2
:1003D00066696775726174696F6E20646174612EFD
:1003E0002E2E005772697474656E20636F6E666995
:1003F0006720746F20656570726F6D2E00446F6E9C
:10040000652072656164696E6720696E20636F6E36
:1004100066696775726174696F6E20646174612EBC
:1004200000456E746572696E6720636F6E666967FA
:10043000207772697465206D6F64652E2E2E002002
:100440002020436F6E6669672056657273696F6E10
:100450003A20004669726D77617265205665727345
:10046000696F6E3A2000707420466C69676874206A
:10047000436F6D707574657200202020436F6E6647
:1004800069672056657273696F6E3A20004669721B
:100490006D776172652056657273696F6E3A2000E0
:1004A000707420466C6967687420436F6D70757452
:1004B000657200496E69742075426C6F7800204344
:1004C0006F756C64204E4F5420696E697421004929
:1004D0006E697420424D45323830004669726D773E
:1004E0006172652056657273696F6E3A2000707490
:1004F00020466C6967687420436F6D70757465720F
:100500000000000000250028002B0000000008006B
:100510000201000003040700000000000000005377
:10052000656E64696E6720544E433A2000000000F7
:1005300000240027002A0001020408102040800146
:10054000020408102001020408102004040404041A
:100550000404040202020202020303030303030071
:10056000761B11241FBECFEFD8E0DEBFCDBF26E043
:10057000A0EAB2E001C01D92A53AB207E1F712E08D
:10058000A0E0B1E0E6E2F4E602C005900D92A03AE8
:10059000B107D9F712E0C1EBD2E004C02197FE0108
:1005A0000E94E32DC03BD107C9F70E94411C0C9467
:1005B00011320C940000FB011082DC014150510902
:1005C0009D91992359F09C3249F09F01261B370BCE
:1005D000241735071CF491931082F2CF0895FC0183
:1005E000CF0121912C3219F02111FACF0895CF01BA
:1005F0000895982F20914C0481E0213208F043C0E7
:10060000809128048111FCCF80914B0432E030931B
:100610002804909327049FEF9093260410922504BA
:1006200020932404ABE2B4E0E4E0F4E090E029138A
:1006300031C01092030490910304880F892B80939A
:10064000030480910204813049F5109202048091E4
:1006500003048093BB008091BC0083FDF8CF85EC40
:100660008093BC00809128048230E1F380912604BD
:100670008F3FB1F0809126048032A1F08091260452
:10068000803391F084E010922A0410924C0410926E
:10069000290408953D9131939F5FC9CF85EEE0CF46
:1006A00080E0F1CF82E0EFCF83E0EDCF909128049E
:1006B0009111FCCF91E090932804909327042FEFA1
:1006C0002093260410922504260F2093240490934F
:1006D000030490910304880F892B80930304809175
:1006E00002048130F9F41092020480910304809393
:1006F000BB008091BC0083FDF8CF85EC8093BC00EB
:10070000809128048130E1F380912504861710F44C
:1007100060912504A4E0B4E0E2EEF3E080E086130B
:1007200003C0089585EEEACF9D9191938F5FF7CF37
:10073000843049F018F4833028F40895883019F093
:10074000803109F081E00895089508952091F4051D
:100750003091F505263C31057CF4A9014F5F5F4FD0
:100760005093F5054093F405455D5A4FFA01818396
:10077000255D3A4FF90113820895AF92BF92CF924F
:10078000DF92EF92FF920F931F93CF93DF93D82EB8
:10079000E62EF42E122F80912B05811106C080ECDD
:1007A0000E94A60380EC0E94A603CDE4D3E033E5CB
:1007B000A32E33E0B32E8991880F0E94A603AC16B6
:1007C000BD06C9F78D2D880F0E94A6032BE4C22E0B
:1007D00023E0D22EC5E4D3E08991880F0E94A603BE
:1007E000CC16DD06C9F78E2D880F990B2091550385
:1007F000203251F1002341F10E94A603C5E5D3E068
:100800009BE5C92E93E0D92E8991880F0E94A603FB
:10081000CC16DD06C9F78F2D880F990B20915D034B
:10082000203291F00E94A603CDE5D3E083E6E82EC6
:1008300083E0F82E8991880F0E94A603EC16FD062E
:10084000C9F7812F880F990B81600E94A60383E06E
:100850000E94A60380EFDF91CF911F910F91FF902F
:10086000EF90DF90CF90BF90AF900C94A603CF9302
:10087000DF93EC018991882319F00E94A603FACF37
:10088000DF91CF910895CF92DF92EF92FF926B01AB
:100890007C0190E080E020EAC21626E8D20621E042
:1008A000E206F1044CF020EAC21A26E8D20A21E05E
:1008B000E20AF1080196EFCF0097A1F480E341111D
:1008C00012C090E080E020E1C21627E2D206E104E7
:1008D000F1046CF020E1C21A27E2D20AE108F10823
:1008E0000196F1CF805D0E94A60341E0EACF009718
:1008F000A1F480E3411112C090E080E028EEC2161E
:1009000023E0D206E104F1046CF028EEC21A23E0E1
:10091000D20AE108F1080196F1CF805D0E94A6039A
:1009200041E0EACF009791F480E3411110C090E0DC
:1009300080E024E6C216D104E104F10464F024E668
:10094000C21AD108E108F1080196F3CF805D0E9438
:10095000A60341E0ECCF009791F480E3411110C071
:1009600090E080E02AE0C216D104E104F10464F0D2
:100970002AE0C21AD108E108F1080196F3CF805DA0
:100980000E94A60341E0ECCF009759F480E34111A7
:1009900009C080E38C0DFF90EF90DF90CF900C9416
:1009A000A603805D0E94A603F4CF8F929F92AF9220
:1009B000BF92CF92DF92EF92FF926B017C0120E019
:1009C00030E0A9010E947D2A87FF07C08DE20E94C6
:1009D000A603F7FAF094F7F8F094C701B6010E9465
:1009E000EA2C4B01770FAA08BB0840E0C501B4010F
:1009F0000E9443048EE20E94A603C501B4010E9436
:100A0000842A9B01AC01C701B6010E940B2C20E097
:100A100030E040E251E40E94E32A0E94EA2C072ED3
:100A2000000C880B990B40E0FF90EF90DF90CF9087
:100A3000BF90AF909F908F900C94430481E480937B
:100A40007C0080917A00806480937A0080917A00A3
:100A500086FDFCCF8091780090917900089590E018
:100A6000FC01E55FFA4F2491FC01E95CFA4F3491F7
:100A7000FC01E55BFA4FE491EE23C9F0222339F043
:100A8000233001F1A8F4213019F1223029F1F0E0EE
:100A9000EE0FFF1FEF5FFA4FA591B4918FB7F89457
:100AA000EC91611126C030953E233C938FBF089591
:100AB0002730A9F02830C9F0243049F78091800010
:100AC0008F7D03C0809180008F7780938000DFCF7F
:100AD00084B58F7784BDDBCF84B58F7DFBCF8091CC
:100AE000B0008F778093B000D2CF8091B0008F7D1F
:100AF000F9CF3E2BDACFCF93DF9390E0FC01E95C96
:100B0000FA4F2491855B9A4FFC0184918823D1F0A0
:100B100090E0880F991FFC01E35DFA4FA591B49115
:100B2000FC01EF5FFA4FC591D49161110EC09FB7E0
:100B3000F8948C91E22FE0958E238C932881E22308
:100B4000E8839FBFDF91CF9108958FB7F894EC9120
:100B5000E22BEC938FBFF6CFCF93DF93EC0161E0F4
:100B600083E00E947B05209731F460E083E0DF9111
:100B7000CF910C942F05CF3FD10511F461E0F6CF52
:100B8000EEE0F5E0E491E33029F140F4E130B1F03A
:100B9000E230D9F0C038D1058CF7E7CFE73021F14A
:100BA000E83051F1E430B1F78091800080628093A9
:100BB0008000D0938B00C0938A0004C084B5806805
:100BC00084BDC7BDDF91CF91089584B5806284BD97
:100BD000C8BDF8CF80918000806880938000D0935A
:100BE0008900C0938800EECF8091B0008068809328
:100BF000B000C093B300E6CF8091B00080628093D4
:100C0000B000C093B400DECF3FB7F89480914103A9
:100C100090914203A0914303B091440326B5A89B51
:100C200005C02F3F19F00196A11DB11D3FBFBA2F7E
:100C3000A92F982F8827BC01CD01620F711D811D3E
:100C4000911D42E0660F771F881F991F4A95D1F7C3
:100C500008958F929F92AF92BF92CF92DF92EF92C0
:100C6000FF924B015C010E9404066B017C010E9413
:100C700004066C197D098E099F09683E7340810541
:100C80009105A8F321E0821A9108A108B10888EE25
:100C9000C80E83E0D81EE11CF11C81149104A1044C
:100CA000B10429F7FF90EF90DF90CF90BF90AF9005
:100CB0009F908F9008952FB7F89460913D037091A5
:100CC0003E0380913F03909140032FBF0895089504
:100CD000EF92FF920F931F93CF93DF938C017B01D1
:100CE000D0E0C0E0F701EC0FFD1F6491662361F0D6
:100CF000D801ED91FC910190F081E02DC80109959A
:100D0000892B11F02196EECFCE01DF91CF911F916B
:100D10000F91FF90EF900895AF92BF92CF92DF9224
:100D2000EF92FF920F931F93CF93DF936C017B01A0
:100D30008B01040F151FEB015E01AE18BF08C01731
:100D4000D10759F06991D601ED91FC910190F081A4
:100D5000E02DC6010995892B79F7C501DF91CF9167
:100D60001F910F91FF90EF90DF90CF90BF90AF90C9
:100D70000895FC01538D448D252F30E0842F90E0A1
:100D8000821B930B541710F0CF9608950197089586
:100D9000FC01918D828D981761F0A28DAE0FBF2F4F
:100DA000B11D5D968C91928D9F5F9F73928F90E0A5
:100DB00008958FEF9FEF0895FC01918D828D981714
:100DC00031F0828DE80FF11D858D90E008958FEF51
:100DD0009FEF0895FC01918D228D892F90E0805C1A
:100DE0009F4F821B91098F73992708958DE494E09A
:100DF0000E94EA0621E0892B09F420E0822F089561
:100E000080E090E0892B29F00E94F60681110C9475
:100E100000000895FC01A48DA80FB92FB11DA35A9D
:100E2000BF4F2C91848D90E001968F739927848F0A
:100E3000A689B7892C93A089B1898C91837080642D
:100E40008C93938D848D981306C00288F389E02DCE
:100E500080818F7D80830895EF92FF920F931F937F
:100E6000CF93DF93EC0181E0888F9B8D8C8D98135D
:100E70001AC0E889F989808185FF15C09FB7F89469
:100E8000EE89FF896083E889F989808183708064B5
:100E900080839FBF81E090E0DF91CF911F910F9100
:100EA000FF90EF900895F62E0B8D10E00F5F1F4F0F
:100EB0000F731127E02E8C8D8E110CC00FB607FC1E
:100EC000FACFE889F989808185FFF5CFCE010E94AC
:100ED0000A07F1CFEB8DEC0FFD2FF11DE35AFF4F09
:100EE000F0829FB7F8940B8FEA89FB89808180623A
:100EF000CFCF682F8DE494E00C942C07CF93DF9331
:100F0000EC01888D8823B9F0AA89BB89E889F98921
:100F10008C9185FD03C0808186FD0DC00FB607FC56
:100F2000F7CF8C9185FFF2CF808185FFEDCFCE0189
:100F30000E940A07E9CFDF91CF91089585ED809354
:100F4000BC008091BC0084FDFCCF10922804089561
:100F500020910C03260F3327331F21323105ECF487
:100F600020912804FC0190E080E0243069F082E0C8
:100F70000895A0910C032191AC0144515D4FA40F41
:100F8000B52FB11D2C930196861798F380910C0311
:100F9000680F60930C0380E0089581E00895E0916C
:100FA000E1038091E003E81730F4F0E0EE51FC4FEC
:100FB000808190E008958FEF9FEF08959091E10375
:100FC0008091E0032FEF3FEF981748F4E92FF0E00E
:100FD000EE51FC4F208130E09F5F9093E103C90107
:100FE00008958091E0039091E103891B990B089586
:100FF000CF92DF92EF92FF920F931F93CF93DF93E5
:101000007C01CB018A0120912904222389F0EB0184
:101010006B01C40ED51ECC15DD0569F06991D701B1
:10102000ED91FC910190F081E02DC7010995F3CF7E
:10103000642F0E94A807C801DF91CF911F910F91E3
:10104000FF90EF90DF90CF900895CF93DF931F92A2
:10105000CDB7DEB76983209129042223F9F02091CE
:101060004C04203258F021E030E0FC01338322832D
:1010700090E080E00F90DF91CF91089580912A0455
:10108000E82FF0E0E55DFB4F998190838F5F8093BF
:101090002A0480934C0481E090E0ECCF61E0CE0123
:1010A00001960E94A807F7CF2091EA023091EB0247
:1010B0002817390771F49091E9028091E802981796
:1010C00041F0E091E902F0E0E855FD4F808190E0C9
:1010D00008958FEF9FEF0895EF92FF920F931F9364
:1010E000CF93DF93DC015C96ED90FC905D97E1146B
:1010F000F10479F481E090E013969C938E9312971B
:1011000090E080E0DF91CF911F910F91FF90EF90E1
:1011100008955196ED91FC91529750968C9150976D
:10112000982F90950FB75E962C915E97122F1270A4
:1011300021FD6095F8942081112319F1282B20833B
:10114000E7012197F1F728E0462F50E0308160FF5A
:101150001AC0382B3083E7012197F1F7BA01759552
:101160006795215089F7112381F08081892380833D
:101170000FBF5C968D919C910197F1F781E090E013
:10118000C1CF2923DCCF3923E5CF9081892BEFCF45
:101190002091EA023091EB022817390771F480910F
:1011A000E8022091E90290E0805C9F4F821B910948
:1011B00060E470E00E948E2D089590E080E0089534
:1011C0002091EA023091EB0228173907B9F4909187
:1011D000E9028091E802981789F0E091E902F0E0D5
:1011E000E855FD4F80812091E90230E02F5F3F4FAD
:1011F0002F7333272093E90290E008958FEF9FEF3C
:101200000895CF93DF93EC019A01AB011B8E1A8EE8
:10121000198E188E1F8A1E8A60E079E08DE390E0B7
:101220000E94C42DC90103979D8F8C8F6C856631F8
:1012300008F047C0C9019695879543979F8B8E8B81
:10124000C9010597998F888FC901880F991F280FA9
:10125000391F36952795369527952C5031093B8FA8
:101260002A8F9091680084E0683048F021E06E3069
:1012700008F420E081E001C0880F2A95EAF7892B65
:10128000809368009C852DE630E0983050F02BE686
:1012900030E09E3030F02CE630E0963110F030E057
:1012A00020E03C8B2B8B292F30E0983090F581E0AB
:1012B00001C0880F9A95EAF78D8B8C8D9D8D0197D3
:1012C000F1F78A8D9B8D892B09F1E091EA02F0916B
:1012D000EB02CE17DF07D1F0309739F0A389B4893C
:1012E0009C918589809589238C938E8D8E7F8E8F9E
:1012F0001092E8021092E902D093EB02C093EA0246
:10130000EB89FC8980819D89892B8083DF91CF9136
:1013100008959E3040F42850310981E001C0880FC3
:101320002A95EAF7C9CF2E503109F7CFFC0180E3A7
:1013300091E0918380838091EA029091EB02E8171B
:10134000F90759F4A389B4899C91858980958923EB
:101350008C931092EB021092EA0208950F931F9360
:10136000CF93DF93EC01162F042F1B821A8288EE95
:1013700093E0A0E0B0E08C839D83AE83BF8380E3E5
:1013800091E0998388831F8A1E8A198E188E1B8E7E
:101390001A8E1D8E1C8E6E8D6E7F20FB61F96E8FF6
:1013A0006695617081E06827842F0E942F0561E0B7
:1013B000802F0E947B05802F90E0FC01E95CFA4FB2
:1013C000E491E88BFC01E55BFA4FE491F0E0EE0F6D
:1013D000FF1FEF5FFA4F859194919A8B898B60E0A4
:1013E000812F0E947B058E8D81FD04C061E0812FDD
:1013F0000E942F051C87812F90E0FC01E95CFA4FC9
:10140000E491ED87FC01E55BFA4FE491F0E0EE0F2B
:10141000FF1FEE5DFC4F859194919F878E87DF9132
:10142000CF911F910F91089590E080E00895EF9281
:10143000FF920F931F93CF93DF937C0180919003D2
:1014400080FF04C061E08DE00E942F05D0E0C0E085
:101450000BE113E08091900381FF04C061E085E01F
:101460000E942F05C8010197F1F78091900381FF39
:1014700004C060E085E00E942F05C8010197F1F7E4
:101480002196EC16FD0631F78091900380FF0AC08B
:1014900060E08DE0DF91CF911F910F91FF90EF9071
:1014A0000C942F05DF91CF911F910F91FF90EF903A
:1014B0000895EDE9E80FE63108F08AC00E2E000C21
:1014C000FF0BEB59F54F0C94E32D7B0AE80A990AC0
:1014D000E80A9D0AE80AC10AE80AA00AAD0AE80A71
:1014E000E80AE80AE80AE80AE80AE80AD80AE80A7C
:1014F000E80AC40ADB0A8AE892E00E94170A66E951
:1015000070E080E090E00E94290688EC90E00E9464
:10151000170A66E970E080E090E00E9429068AE8F8
:1015200092E00E94170A66E970E080E090E00E9475
:10153000290688EC90E00C94170A8AE892E0E7CF3D
:101540008AE892E00E94170A66E970E080E090E085
:101550000E94290688EC90E023C088EC90E00E946D
:10156000170A66E970E080E090E00E9429068AE8A8
:1015700092E00E94170A66E970E080E090E00E9425
:10158000290688EC90E0CDCF88EC90E00E94170A05
:1015900066E970E080E090E00E9429068AE892E027
:1015A0000E94170A66E970E080E090E00E94290638
:1015B0008AE892E0C0CF8AE892E00E94170A66E9C2
:1015C00070E080E090E00E94290688EC90E0BACFBD
:1015D00008958EBD00000DB407FEFDCF8EB50895B1
:1015E000CF93DF93D82FC62F8091F604882329F05C
:1015F000813071F1DF91CF91089520912405213040
:10160000C9F780912505909126053091F704209324
:10161000290430934B0410922A0410924C04DC01EC
:10162000ED91FC910190F081E02D6D2F0995809155
:10163000250590912605DC01ED91FC910190F0814A
:10164000E02D6C2F099581E0DF91CF910C94F90288
:1016500060E08091F8040E942F058D2F8F770E9403
:10166000E90A8C2F0E94E90A61E08091F804DF9179
:10167000CF910C942F050F931F93CF93DF93EC0121
:10168000162F8091F604882341F0813009F44AC076
:10169000DF91CF911F910F91089520912405213062
:1016A000B9F780912505909126053091F704209394
:1016B000290430934B0410922A0410924C04DC014C
:1016C000ED91FC910190F081E02D099581E00E945F
:1016D000F90263E08091F7040E9456031092E1033F
:1016E0008093E0038E010D5F1F4F8091250590913F
:1016F0002605DC01ED91FC910084F185E02D099532
:10170000892B31F2C017D10719F2809125059091EC
:101710002605DC01ED91FC910284F385E02D09950D
:101720008993E3CF60E08091F8040E942F05812F18
:101730000E94E90A8E010D5F1F4F80E00E94E90AB6
:101740008993C017D107C9F761E08091F804DF9150
:10175000CF911F910F910C942F052F923F924F9292
:101760005F926F927F928F929F92AF92BF92CF9231
:10177000DF92EF92FF920F931F93CF93DF93CDB73A
:10178000DEB76A970FB6F894DEBF0FBECDBF67EF26
:10179000CE0101960E943B0B80912005909121057E
:1017A000A0912205B09123056C017D01FF0CCC08AE
:1017B000DC2C76019C01AD016C2D7C2D8C2D9C2D9B
:1017C000345F4140510961097109810991092C87F0
:1017D0003D874E875F87688B772E4C0159016A01E0
:1017E000E62EF72E8C010E94F12D622E532E442EF0
:1017F000352E262E788F898F9A8F3091080520916B
:101800000705932F990F990B492F592F692F792F7E
:10181000892F0E94F12D0CE00E94E92E2C83398B38
:101820004A8B5B8B6C8B7D8B8E8B9F8B30910A05EB
:1018300020910905932F990F990BA62CB52CC42C38
:10184000D32CE22CF88C098D1A8D492F592F692F32
:10185000792F892F0E94F12D08E00E94022FAC8081
:10186000B988CA88DB88EC88FD880E891F890E94A8
:101870001F2F70588F4F9F4FE0910505F09106057F
:101880005F01D12CC12CE12CF12C8701EC83BD82AE
:10189000CE82DF82E886F9860A871B87C12CD12C8D
:1018A000E12CF12C00E010E00E94F12D01E20E94F9
:1018B000022F2C83398B4A8B5B8B6C8B7D8B8E8BB1
:1018C0009F8BA0E00E94312F09F443C13091100595
:1018D00020910F05932F990F990BA62CB52CC42C92
:1018E000D32CE22CF88C098D1A8D492F592F692F92
:1018F000792F892F0E94F12D19012A01662E788FE8
:10190000898F9A8F30910E0520910D05932F990F95
:10191000990BAC84BD84CE84DF84E888F72C8401E5
:10192000492F592F692F792F892F0E94F12D01E11D
:101930000E94E92E51016201E62CF88C098D1A8D66
:101940000E941F2F59016A017B01182F392E8A81AD
:1019500090E0B0E0A0E024E0880F991FAA1FBB1F11
:101960002A95D1F72B8122952F70822B498150E047
:1019700070E060E03CE0440F551F661F771F3A950A
:10198000D1F7482B592B6A2B7B2B80E090E0A0E10C
:10199000B0E0841B950BA60BB70B2C013D01770C17
:1019A0004408542C32019C01AD01642D742D842D0A
:1019B000942D0FE10E94E92E39014A01B62FA72F7D
:1019C000F82FE92F30910C0520910B05932F990FDB
:1019D000990B492F592F692F792F892F03E20E94E4
:1019E000E92E012F132D0E941F2F59016A017B013F
:1019F0008C019301A4016B2F7A2F8F2F9E2F0E94B1
:101A0000282FE5E3AE2EFCE0BF2EC12CD12CE12C1B
:101A1000F12C00E010E00E94F12DAC80B988CA885A
:101A2000DB88EC88FD880E891F890E944B2E2C874D
:101A30003D874E875F87688B7C83898B9A8B0DE00F
:101A40000E94022F922E832E742E652E562E472E24
:101A5000382E292E3091160520911505932F990FB8
:101A6000990BA92CB82CC72CD62CE52CF42C032DC3
:101A7000122D492F592F692F792F892F0E94F12D6F
:101A80000E94F12D09E10E94022FAC84BD84CE8416
:101A9000DF84E888FC8009891A890E941F2F1901B8
:101AA0002A013B014C013091140520911305932F1D
:101AB000990F990B492F592F692F792F892F0E9440
:101AC000F12D03E10E94022F59016A017B018C0173
:101AD0009101A201B301C4010E941F2F08E00E94DE
:101AE000022F59016A017B01E82F192F309112054D
:101AF00020911105932F990F990B492F592F692F79
:101B0000792F892F04E00E94E92E0E2F0E941F2FAB
:101B10000E94202D20E030E040E85BE30E94E32AB1
:101B20006A960FB6F894DEBF0FBECDBFDF91CF919E
:101B30001F910F91FF90EF90DF90CF90BF90AF90EB
:101B40009F908F907F906F905F904F903F902F90DD
:101B5000089560E070E0CB01E3CF8F929F92AF9247
:101B6000BF92CF92DF92EF92FF92CF93DF9300D09C
:101B70001F92CDB7DEB76AEFCE0101960E943B0BF4
:101B8000898190E0B0E0A0E02CE0880F991FAA1FA7
:101B9000BB1F2A95D1F74A8150E070E060E034E045
:101BA000440F551F661F771F3A95D1F7842B952B4D
:101BB000A62BB72B2B8122952F70822BE6EFF4E01A
:101BC0004185528570E060E06C017D0124E0F59470
:101BD000E794D794C7942A95D1F7C41AD50AE60A90
:101BE000F70A33E0B595A795979587953A95D1F77C
:101BF000440F551F661F771F4C015D01841A950A1B
:101C0000A60AB70AA5019401A385B4850E94E92D0F
:101C10004B015C013BE0B594A794979487943A9567
:101C2000D1F7A7019601C701B6010E947E2D9B0145
:101C3000AC016CE055954795379527956A95D1F796
:101C4000A585B6850E94E92D9B01AC017EE05595E6
:101C50004795379527957A95D1F7280D391D4A1D57
:101C60005B1D22A733A744A755A7A5E0B0E00E94BB
:101C7000BA2B60587F4F8F4F9F4F672F782F892F38
:101C8000992787FD9A950E94842A20E030E048EC4D
:101C900052E40E94782C0F900F900F90DF91CF911B
:101CA000FF90EF90DF90CF90BF90AF909F908F907C
:101CB0000895CF93C82F8091F604882329F08130AE
:101CC00009F443C0C0E052C0209124052130D1F76F
:101CD00080912505909126053091F70420932904E1
:101CE00030934B0410922A0410924C04DC01ED91C5
:101CF000FC910190F081E02D6C2F099581E00E940C
:101D0000F90261E08091F7040E9456031092E1030A
:101D10008093E003C0E08091250590912605DC01C9
:101D2000ED91FC910084F185E02D0995892BF1F06E
:101D30008091250590912605DC01ED91FC910284AE
:101D4000F385E02D0995C82FE6CF60E08091F80477
:101D50000E942F058C2F0E94E90A80E00E94E90A68
:101D6000C82F61E08091F8040E942F058C2FCF913D
:101D70000895CF93C82F843008F0C0E084EF0E940C
:101D8000590E8C7F682F6C2B84EFCF910C94F00A46
:101D9000CF93DF9362E070E080E090E00E9429063C
:101DA0008091F604882309F4A9C1813009F4DEC1C9
:101DB00080ED0E94590E883519F0803609F021C255
:101DC00089E80E94590EC82F88E80E94590E2C2FCE
:101DD00030E0322F2227820F932F911D9093000520
:101DE0008093FF048BE80E94590EC82F8AE80E9456
:101DF000590E2C2F30E0322F2227820F932F911D66
:101E000090930205809301058DE80E94590EC82F1A
:101E10008CE80E94590E2C2F30E0322F2227820F9F
:101E2000932F911D90930405809303058FE80E94E2
:101E3000590EC82F8EE80E94590E2C2F30E0322FF9
:101E40002227820F932F911D9093060580930505FD
:101E500081E90E94590EC82F80E90E94590E2C2F4B
:101E600030E0322F2227820F932F911D9093080587
:101E70008093070583E90E94590EC82F82E90E94CA
:101E8000590E2C2F30E0322F2227820F932F911DD5
:101E900090930A058093090585E90E94590EC82F81
:101EA00084E90E94590E2C2F30E0322F2227820F16
:101EB000932F911D90930C0580930B0587E90E9449
:101EC000590EC82F86E90E94590E2C2F30E0322F70
:101ED0002227820F932F911D90930E0580930D055D
:101EE00089E90E94590EC82F88E90E94590E2C2FAB
:101EF00030E0322F2227820F932F911D90931005EF
:101F000080930F058BE90E94590EC82F8AE90E9421
:101F1000590E2C2F30E0322F2227820F932F911D44
:101F200090931205809311058DE90E94590EC82FD8
:101F30008CE90E94590E2C2F30E0322F2227820F7D
:101F4000932F911D90931405809313058FE90E94A0
:101F5000590EC82F8EE90E94590E2C2F30E0322FD7
:101F60002227820F932F911D9093160580931505BC
:101F700081EA0E94590E8093170582EE0E94590E45
:101F8000C82F81EE0E94590E2C2F30E0322F2227CD
:101F9000820F932F911D909319058093180583EE5E
:101FA0000E94590E80931A0584EE0E94590EC82F84
:101FB00085EE0E94590E90E1C99FE00111248F70B7
:101FC0008C0F9D2F911D90931C0580931B0586EE11
:101FD0000E94590EC82F85EE0E94590E90E1C99FAC
:101FE000E001112490E054E0959587955A95E1F72A
:101FF0008C0F9D1F90931E0580931D0587EE0E94F8
:10200000590E80931F05C091FA04C83008F0C0E053
:1020100085EF0E94590E90E2C99FB00111248F7183
:10202000682B85EF0E94F00AC091FB04C83008F0CD
:10203000C0E085EF0E94590E94E0C99FB0011124C1
:10204000837E682B85EF0E94F00A8091FD040E9438
:102050009803C82F84EF0E94590ED82F80E00E9469
:10206000B90E84EF0E94590E94E0C99FB00111246B
:10207000837E682B84EF0E94F00A8D2F83700E946C
:10208000B90E8091FE040E949803C82F84EF0E942D
:10209000590ED82F80E00E94B90E82EF0E94590E8F
:1020A000887F6C2F682B82EF0E94F00A8D2F83703F
:1020B0000E94B90E8091FC040E949803C82F84EFFF
:1020C0000E94590ED82F80E00E94B90E84EF0E9422
:1020D000590E90E2C99FB00111248F71682B84EFD3
:1020E0000E94F00A8D2F83700E94B90E83E00E9437
:1020F000B90E80EDDF91CF910C94590E809124059B
:10210000813009F055CE1092E1031092E003109255
:102110002A0410924C0410922804809327041092F1
:10212000020461E082E10E942F0561E083E10E94E8
:102130002F058091B9008E7F8093B9008091B900FE
:102140008D7F8093B90088E48093B80085E4809304
:10215000BC0084EA93E09093DF038093DE0385EA7A
:1021600093E09093DD038093DC0322CECFB7F89405
:102170008091DB03811127C0E5E5F5E08491E1E47E
:10218000F5E09491E82FF0E0EE0FFF1FE35DFA4FCA
:10219000A591B491EC91E92321F461E08AE00E94D9
:1021A0002F0561E08AE00E947B058CB580618CBDC3
:1021B0008CB580648CBD61E08DE00E947B0561E0A0
:1021C0008BE00E947B058091DB038F5F8093DB03B4
:1021D000CFBF8CB58C7F82608CBD8DB581608DBD8D
:1021E0008CB58F7D8CBD8CB58C608CBD61E0809191
:1021F000F8040E947B0561E08091F8040E942F059D
:10220000D7CDDF91CF910895FB0101900020E9F730
:102210003197AF01461B570BDC01ED91FC91028019
:10222000F381E02D0994CF93DF93BC018DE494E01A
:102230000E946806EC0162E671E08DE494E00E9481
:1022400004118C0F9D1FDF91CF9108958F929F9263
:10225000AF92BF92CF92DF92EF92FF920F931F93B4
:10226000CF93DF93EC017B010E945B064B015C0185
:1022700028EE820E23E0921EA11CB11CCE018E0D11
:102280009F1DFE011192E817F907E1F78E01680121
:10229000CC1ADD0A0E945B06681579058A059B0544
:1022A000A8F48DE494E00E94EA06892B99F38DE46A
:1022B00094E00E94C8068930C9F08430B9F0CE1489
:1022C000DF0444F7F80181938F01E1CF8AE191E0C7
:1022D000DF91CF911F910F91FF90EF90DF90CF9002
:1022E000BF90AF909F908F900C941311DF91CF917E
:1022F0001F910F91FF90EF90DF90CF90BF90AF9024
:102300009F908F9008956115710511F00C94041140
:1023100090E080E00895CF93DF93BC018DE494E0DA
:102320000E948311EC0162E671E08DE494E00E946A
:1023300004118C0F9D1FDF91CF9108958F929F9272
:10234000AF92BF920F931F93CF93DF93CDB7DEB7BA
:10235000A1970FB6F894DEBF0FBECDBF19A24230D1
:1023600008F44AE08E010F5D1F4F842E912CB12C92
:10237000A12CA50194010E94A22DE62FB901CA014A
:10238000EA30E4F4E05DD801EE938D01232B242B99
:10239000252B79F7BD018DE494E00E948311A1966D
:1023A0000FB6F894DEBF0FBECDBFDF91CF911F9166
:1023B0000F91BF90AF909F908F900895E95CE3CF0D
:1023C000682F70E090E080E04AE00C949E11BC0120
:1023D00090E080E04AE00C949E110C9483110F93DE
:1023E0001F93CF93DF93CDB7DEB76F970FB6F894F7
:1023F000DEBF0FBECDBF80912B05882309F458C0E6
:1024000010920606109200068091FD059091FE053F
:1024100090930206809301068FEF9FEF909305063D
:102420008093040661E084E00E942F0564EF71E070
:1024300080E090E00E94290661E08091FA050E9408
:102440002F056AEF70E080E090E00E94290660E0CE
:102450008091FA050E942F0564EF71E080E090E022
:102460000E94290661E08091FA050E942F05809163
:10247000FC05813061F46AEF70E080E090E00E943A
:10248000290668EE73E080E090E00E9429068091C2
:102490006F00826080936F0080910606853009F49A
:1024A00050C064E670E080E090E00E942906F4CF1E
:1024B0008AE00E94A6036FE175E08DE494E00E943B
:1024C000680620E04091F8056091F605CE0101967E
:1024D0000E94AE0940E855E260E070E0CE0101964E
:1024E0000E9401090BE215E0C8018B5295400F5F75
:1024F0001F4F2091F4053091F50528173907ECF0AE
:10250000F8016081CE0101960E946C0865E671E0D9
:102510008DE494E00E94ED11F8016081062E000C1C
:10252000770B880B990B40E10E949E1162E671E0E7
:102530008DE494E00E940411D7CFCE0101960E9451
:1025400096098FEF9FEF9093F5058093F4056F96B2
:102550000FB6F894DEBF0FBECDBFDF91CF911F91B4
:102560000F9108950F931F93CF93DF93CDB7DEB7ED
:102570006F970FB6F894DEBF0FBECDBF61E084E069
:102580000E942F0588EE90E00E94131120E049E0A0
:102590006AE0CE0101960E94AE0940E855E260E093
:1025A00070E0CE0101960E94010968ED70E0CE0155
:1025B00001960E9468068CEC90E00E9413116AEF6D
:1025C00070E080E090E00E9429066AEB70E0CE01A6
:1025D00001960E94680667EC73E0CE0101960E94A6
:1025E000ED1168E671E0CE0101960E94ED1160EDFB
:1025F00073E0CE0101960E94ED116BEA70E0CE010E
:1026000001960E94680663EA70E08DE494E00E94FF
:10261000680687EC93E00E948B1168EE73E080E01F
:1026200090E00E9429060AEF15E061E0F801808140
:102630000E942F056AEF70E080E090E00E9429067A
:1026400060E0F80180810E942F0564EF71E080E076
:1026500090E00E94290660E084E00E942F05CE01F0
:1026600001960E9496096F960FB6F894DEBF0FBED2
:10267000CDBFDF91CF911F910F9108954F925F923F
:102680006F927F928F929F92AF92BF92CF92DF9282
:10269000EF92FF92CF93DF936B017C01AC019B0122
:1026A0000E94792D6AE671E081111AC04601570136
:1026B000E894B7F82FEF3FEF4FE75FE7C501B401AC
:1026C0000E94792D811128C02FEF3FEF4FE75FE780
:1026D000C501B4010E947D2A1816F4F46EE671E07B
:1026E0008DE494E00E9404117C0162E671E08DE4C7
:1026F00094E00E9404118E0D9F1DDF91CF91FF90F9
:10270000EF90DF90CF90BF90AF909F908F907F9091
:102710006F905F904F9008952FEF3FEF4FE75FE48A
:10272000C701B6010E94742D18161CF462E771E00F
:10273000D7CF2FEF3FEF4FE75FECC701B6010E9405
:102740007D2A87FDF3CF20E030E0A901C701B60163
:102750000E947D2AD0E0C0E087FF0AC06DE28DE4D0
:1027600094E00E942C07EC01F7FAF094F7F8F0944B
:102770002AE037ED43EA5BE3C701B6010E940C2C67
:102780004B015C010E94F12C6B017C010E94822AAA
:102790009B01AC01C501B4010E940B2C4B015C01F3
:1027A0004AE0C701B6010E949E11C80FD91F6EE210
:1027B0008DE494E00E942C07C80FD91F20E030E080
:1027C00040E251E4C501B4010E94E32A2B013C011F
:1027D0000E94F12C4B01CB010E94E7117E01E80E13
:1027E000F91EB40190E080E00E94822A9B01AC01B6
:1027F000C301B2010E940B2C20E030E040E251E422
:102800000E94E32A0E94F12CCB010E94E711E80EFE
:10281000F91E6BCF0F931F93CF93DF9305E413E063
:10282000D0E0C0E0F80161918F01CE010E94AC2B95
:102830002196C639D105B1F7DF91CF911F910F9144
:102840000895CF92DF92EF92FF920F931F93CF9351
:10285000DF9366E771E085E493E00E945A2FC5E4B8
:10286000D3E010E31F836DE771E08DE493E00E94F5
:102870005A2F1F8764E871E085E593E00E945A2F84
:1028800081E38F8B6BE871E08DE593E00E945A2F16
:102890001F8F80ED97E099A388A38FE48AA38FE22E
:1028A0008BA384E08CA34EE150E060E070E04DA388
:1028B0005EA36FA378A784E190E09AAF89AF02E3AB
:1028C00010E01CAF0BAF8CE291E0A0E0B0E0809391
:1028D000820390938303A0938403B09385038CE3D6
:1028E00090E0A0E0B0E08093860390938703A093EC
:1028F0008803B093890328E7C22ED12CE12CF12C58
:10290000C0928A03D0928B03E0928C03F0928D03E5
:1029100028E833E13AA729A720E23EE43CA72BA709
:102920004DA75EA76FA778AB89AB9AABABABBCAB3F
:102930008DE290E0A0E0B0E08DAB9EABAFABB8AF66
:102940008FE080938E038DE280938F0362E971E0C4
:1029500084E993E00E945A2FC1E0C093BD03C09365
:10296000BE03C093BF03C093C003C093C103C09311
:10297000C3031093C5030093C4031092C6036BEA0C
:1029800071E087EC93E00E945A2F6BEA71E080EDD2
:1029900093E00E945A2F85E0809391031092920356
:1029A000C0939303C09390038AE991E09093DA0374
:1029B0008093D903DF91CF911F910F91FF90EF90FA
:1029C000DF90CF900C940A14EF92FF920F931F9315
:1029D000CF93DF9305E413E07801D0E0C0E0CE01AF
:1029E0000E94A42BF70181937F012196C639D1055E
:1029F000B1F7D0E0C0E0F80181918F01C80FD11D7F
:102A000087FDDA95F3E00C341F07A9F78EE091E01B
:102A10000E94131185E493E00E948B118091D903E9
:102A20009091DA038C179D0761F084EF90E00E948B
:102A30001311DF91CF911F910F91FF90EF900C94A4
:102A40002114DF91CF911F910F91FF90EF90089586
:102A50007F928F929F92AF92BF92CF92DF92EF922E
:102A6000FF920F931F93CF93DF93CDB7DEB7A89755
:102A70000FB6F894DEBF0FBECDBF2091920347E0A2
:102A800068E0CE0101960E94AE09809191038330E7
:102A900009F45CC008F046C0813009F452C040EB34
:102AA00054E060E070E0823009F446C010920706FE
:102AB00010929D0610929C061092A2061092A006FB
:102AC0001092A1060E945B066B017C0128EBC20EEE
:102AD0002BE0D21EE11CF11C11E087E5782E0EE4FC
:102AE00088248394912C0E945B066C157D058E05CD
:102AF0009F05D8F1CE0101960E949609A8960FB6BF
:102B0000F894DEBF0FBECDBFDF91CF911F910F9123
:102B1000FF90EF90DF90CF90BF90AF909F908F90FD
:102B20007F9008958530E1F0B0F040E05BE460E034
:102B300070E0863009F0BACFCE0101960E940109FB
:102B4000B5CF4CE251E060E070E0F6CF40E659E0EE
:102B500060E070E0F1CF40EC52E160E070E0ECCF7B
:102B600040E855E260E070E0E7CFCE0101960E94B8
:102B7000C808892B09F4B7CFCE0101960E94E0085E
:102B800020919C0630919D062635310544F0109227
:102B9000070610929D0610929C061092A206909134
:102BA000A206911117C0843251F41093A20690929C
:102BB0009D0680929C0680930706109208068091DD
:102BC000A006882309F48FCF8091A106882309F4F9
:102BD0008ACF90CF8E300CF0DAC18091080687340E
:102BE00009F0ECC080910906803519F08E3409F0A7
:102BF000E5C090910A06923509F0F2C020910B06CB
:102C00002D3409F0D8C120910C06233409F0D3C12A
:102C100087E096E00E948B1110939E0642E050E000
:102C20006EE076E0CE0180960E94612F1AA2CE015E
:102C300080960E94E628909397068093960642E03D
:102C400050E060E176E0CE0180960E94612FCE01D7
:102C500080960E94E628909399068093980642E019
:102C600050E062E176E0CE0180960E94612FCE01B5
:102C700080960E94E62890939B0680939A0682E1B4
:102C800096E00E94EF025C0142E050E0BE01605E0F
:102C90007F4F0E94DB0288A1813409F098C0109315
:102CA0007C06C5010E94EF025C014CE050E06FE53C
:102CB00076E00E94DB0280915F06811106C065EB21
:102CC00071E08FE596E00E945A2FC5010E94EF0245
:102CD0005C0142E050E0BE01605E7F4F0E94DB027B
:102CE00088A1833509F076C080936B06C5010E94E8
:102CF000EF025C014DE050E06CE676E00E94DB0202
:102D000080916C06811106C064EB71E08CE696E060
:102D10000E945A2FC5010E94EF025C0142E050E080
:102D2000BE01605E7F4F0E94DB0288A1853409F0FE
:102D300054C080937906C5010E94EF025C0146E011
:102D400050E0BE01605E7F4F0E94DB02CE018096A4
:102D50000E94E22860938306709384068093850620
:102D600090938606C5010E94EF025C0146E050E0A8
:102D7000BE01605E7F4F0E94DB02CE0180960E9402
:102D8000E228609387067093880680938906909363
:102D90008A06C5010E94EF0247E050E06BE876E04A
:102DA0000E94DB021093A0060E945B0660939206CD
:102DB000709393068093940690939506109207065D
:102DC00010929D0610929C061092A206F8CE1092C8
:102DD0007C0667CF00936B0689CF70927906ABCFE4
:102DE000803511F08E3451F7973441F780910B06FE
:102DF000873421F780910C06813401F787E096E053
:102E00000E948B1110939F0642E050E06EE076E046
:102E1000CE0180960E94612F1AA2CE0180960E9458
:102E2000E628909397068093960642E050E060E192
:102E300076E0CE0180960E94612FCE0180960E949E
:102E4000E628909399068093980642E050E062E16C
:102E500076E0CE0180960E94612FCE0180960E947E
:102E6000E62890939B0680939A0682E196E00E9462
:102E7000EF025C014CE050E06FE576E00E94DB027F
:102E800080915F06811106C065EB71E08FE596E0E9
:102E90000E945A2FC5010E94EF025C0142E050E0FF
:102EA000BE01605E7F4F0E94DB0288A1833509F07E
:102EB00068C080936B06C5010E94EF025C014DE083
:102EC00050E06CE676E00E94DB0280916C06811196
:102ED00006C064EB71E08CE696E00E945A2FC501B3
:102EE0000E94EF025C0142E050E0BE01605E7F4F55
:102EF0000E94DB0288A1853409F046C080937906E0
:102F0000C5010E94EF025C0142E050E0BE01605E3C
:102F10007F4F0E94DB02CE0180960E94E6289093AC
:102F20007B0680937A06C5010E94EF025C0143E0B4
:102F300050E0BE01605E7F4F0E94DB02CE018096B2
:102F40000E94E62890937E0680937D06C5010E942C
:102F5000EF020E94EF0248E050E0BE01605E7F4F4A
:102F60000E94DB02CE0180960E94E22860937F06D9
:102F70007093800680938106909382061093A10639
:102F800013CF00936B0697CF70927906B9CF40911B
:102F90009C0650919D069A012F5F3F4F30939D06EE
:102FA00020939C06495F594FFA018083295F394F6E
:102FB000F901108204CE803509F400CF13CF1F929F
:102FC0000F920FB60F9211242F933F938F939F93DD
:102FD000AF93BF9380913D0390913E03A0913F0337
:102FE000B091400330913C0323E0230F2D3758F577
:102FF0000196A11DB11D20933C0380933D03909346
:103000003E03A0933F03B09340038091410390910E
:103010004203A0914303B09144030196A11DB11D49
:103020008093410390934203A0934303B0934403DE
:10303000BF91AF919F918F913F912F910F900FBEB4
:103040000F901F90189526E8230F0296A11DB11D21
:10305000D2CF1F920F920FB60F9211242F933F934E
:103060004F935F936F937F938F939F93AF93BF9390
:10307000EF93FF938DE494E00E940A07FF91EF9194
:10308000BF91AF919F918F917F916F915F914F9180
:103090003F912F910F900FBE0F901F9018951F9288
:1030A0000F920FB60F9211242F938F939F93EF934C
:1030B000FF93E0915D04F0915E048081E0916304F0
:1030C000F091640482FD1BC09081809166048F5F43
:1030D0008F7320916704821741F0E0916604F0E05D
:1030E000E35BFB4F958F80936604FF91EF919F9177
:1030F0008F912F910F900FBE0F901F901895808188
:10310000F4CF1F920F920FB60F9211242F933F937B
:103110004F935F936F937F938F939F93AF93BF93DF
:10312000EF93FF938091B900887F803609F44AC0FD
:10313000F0F5883209F4A7C018F5803109F49BC076
:10314000B8F4882309F4F9C0883009F494C0FF91D9
:10315000EF91BF91AF919F918F917F916F915F910F
:103160004F913F912F910F900FBE0F901F90189588
:10317000883109F488C0803251F78093260414C046
:10318000803409F49DC040F48033B9F38833F9F6F4
:103190008093260485ECB0C0803509F485C088355D
:1031A00009F496C0883499F60E949E07D0CF8839DA
:1031B00009F48CC038F5883729F050F4883611F0BE
:1031C000803729F683E08093280410922E0357C09D
:1031D000883809F47BC0803919F0803809F0B7CFFE
:1031E00080912E03803208F071C0E0912E0381E0BF
:1031F0008E0F80932E038091BB00F0E0E25FFC4FC6
:1032000080833DC0803B39F0E0F4803A09F479C016
:10321000883A09F09CCF84E08093280410920D0333
:1032200010920C03E091DE03F091DF030995809189
:103230000C0381110FC081E080930C031092EC020B
:1032400009C0803C09F4A6CF883C09F4A3CF883B91
:1032500009F07DCFE0910D0381E08E0F80930D0387
:10326000F0E0E451FD4F80818093BB0090910D030D
:1032700080910C0329C0809103048093BB0085ECEE
:103280008093BC0064CF909125048091240498170A
:1032900058F5E091250481E08E0F80932504F0E03D
:1032A000EC5FFB4F8081E9CFE091250481E08E0F38
:1032B000809325048091BB00F0E0EC5FFB4F80839E
:1032C00090912504809124049817C8F285E8D8CFFE
:1032D000E091250481E08E0F809325048091BB004E
:1032E000F0E0EC5FFB4F80838091270481115CCF7D
:1032F00081E08093020484EA8093BC001092280449
:1033000026CF85EC8093BC001092280480912E0378
:10331000803230F4E0912E03F0E0E25FFC4F108247
:1033200060912E0370E0E091DC03F091DD038EE00C
:1033300093E0099510922E030ACF1092260434CF01
:103340001F920F920FB60F9211242F933F934F931A
:103350005F936F937F938F939F93AF93BF93EF93FD
:10336000FF93E091EA02F091EB02309749F0A685D5
:10337000B7858585968D91FF14C09C918923A1F412
:10338000FF91EF91BF91AF919F918F917F916F913D
:103390005F914F913F912F910F900FBE0F901F9013
:1033A00018959C91892361F7A389B4899C9185899B
:1033B000809589238C93868997890197F1F7608D91
:1033C000718DA685B785558538E020E0CB01019742
:1033D000F1F7822F90E095958795282F4C91452302
:1033E00009F02068315091F7868D81FD20958091FC
:1033F000E80290E001968F7399273091E90238171F
:1034000099F0A091E802B0E0A855BD4F2C938093AD
:10341000E802828D938D0197F1F7A389B4898C918D
:103420009589892B8C93ACCF868D8160868FF1CF67
:103430001F920F920FB60F9211242F933F934F9329
:103440005F936F937F938F939F93AF93BF93CF932C
:10345000DF93EF93FF93C091A502D091A602ED2FC9
:10346000FF278091A7028823C1F1EE5DFD4FE49113
:103470008E2F90E00E94AC05CF58D84ED093A60274
:10348000C093A5028091A40281508093A40281116F
:1034900011C08091A302882351F18091A70291E08D
:1034A00089278093A7021092A2021092A30284E1BE
:1034B0008093A402FF91EF91DF91CF91BF91AF91E3
:1034C0009F918F917F916F915F914F913F912F913C
:1034D0000F900FBE0F901F901895EE5DFE4FE49178
:1034E0008E2F90E00E94AC05C753D34FC7CF809179
:1034F0000606823009F4B0C0A0F4882361F181305F
:1035000009F462C08091A2028F5F8093A20285308D
:1035100071F6809103068111CACF81E08093A302E6
:10352000C6CF843009F4CCC008F4B1C0853051F75F
:103530001092A1021092A00280916F008D7F809363
:103540006F0060E08091FA050E942F0560E084E042
:103550000E942F05D7CF41E0409303062091A0029F
:103560003091A1028EE790E0022E02C095958795DA
:103570000A94E2F781702730310539F02F5F3F4F11
:103580003093A1022093A00211C01092A1021092C8
:10359000A0022091010630910206121613068CF447
:1035A0002150310930930206209301068111AACFE0
:1035B0008091A70291E089278093A7021092A2022E
:1035C00076CF40930606F2CF109203069091000644
:1035D000692F70E04091A0025091A102FB01E55DCE
:1035E000FA4F2181022E000C330B042E02C03595B8
:1035F00027950A94E2F7822F817047305105C9F070
:103600004F5F5F4F5093A1024093A0026091040668
:1036100070910506AB0156954795262720FF04C0FB
:1036200098E0492794E859275093050640930406EB
:10363000BDCF1092A1021092A0024091F4055091CA
:10364000F5056417750724F49F5F90930006DECF9D
:1036500092E090930606DACF2091A0023091A10269
:1036600080910406809590E0022E02C09595879582
:103670000A94E2F781702730310509F07FCF10926C
:10368000A1021092A00293E0909306068FCF2091A2
:10369000A0023091A10280910506809590E0022E53
:1036A00002C0959587950A94E2F78170273031051D
:1036B00009F064CF1092A1021092A00294E0E4CF2E
:1036C00081E0809303062091A0023091A1028EE751
:1036D00090E0022E02C0959587950A94E2F78170DA
:1036E0002730310509F04ACF95E0CECFCF93DF9355
:1036F000EDE4F4E01382128288EE93E0A0E0B0E003
:1037000084839583A683B78322E431E031832083C9
:1037100025EC30E03587248724EC30E03787268796
:1037200020EC30E0318B208B21EC30E0338B228B8E
:1037300022EC30E0358B248B26EC30E0378B268B67
:10374000118E128E138E148ECAEED4E01B821A8252
:103750008C839D83AE83BF8384E591E099838883C6
:103760001092070610929D0610929C061092A206D7
:1037700010929E0610929F066FEB71E08FE596E027
:103780000E945A2F69EC71E08CE696E00E945A2F55
:1037900064ED71E08BE896E00E945A2F10929B0630
:1037A00010929A0610929906109298061092970617
:1037B000109296068EE480936B0687E580937906D7
:1037C00010927B0610927A0610927C0610927E066A
:1037D00010927D0610927F0610928006109281064C
:1037E000109282061092830610928406109285062B
:1037F000109286061092870610928806109289060B
:1038000010928A060E945B0660939206709393065C
:1038100080939406909395061092000610920206EB
:103820001092010610920306109206061092FC05F3
:1038300082E390E09093FE058093FD058FEF9FEF6C
:103840009093F5058093F405E6EFF4E081E086A718
:1038500040E856EE65EC77E441AB52AB63AB74AB3A
:10386000108297E79183D0ABC7A79AE0928393E049
:10387000938314821582868387838087DF91CF911B
:103880000895CF93DF93CDB7DEB7C656D1090FB6F3
:10389000F894DEBF0FBECDBF789484B5826084BD3E
:1038A00084B5816084BD85B5826085BD85B5816044
:1038B00085BD80916E00816080936E0010928100C2
:1038C000809181008260809381008091810081607D
:1038D000809381008091800081608093800080913E
:1038E000B10084608093B1008091B00081608093CA
:1038F000B00080917A00846080937A0080917A0091
:10390000826080937A0080917A00816080937A004F
:1039100080917A00806880937A001092C10061E003
:103920008DE00E947B0561E085E00E947B05E091CF
:103930005D04F0915E0482E08083E0915904F0918F
:103940005A041082E0915B04F0915C0487E6808366
:1039500010926504E0916104F091620486E0808336
:10396000E0915F04F0916004808180618083E09148
:103970005F04F0916004808188608083E0915F043F
:10398000F0916004808180688083E0915F04F09111
:10399000600480818F7D808382E090E09093FB05BE
:1039A0008093FA0501E000932B051092800089E0D6
:1039B000809381008AE992E0909389008093880047
:1039C0000093B10080916F00826080936F0061E08E
:1039D00082E00E947B0561E083E00E947B058EEE21
:1039E00094E00E9413116BED74E08DE494E00E946A
:1039F00068068BED91E00E948B11109234031092B7
:103A0000350310923603109237031092330310924D
:103A10002F031092300310923103109232030E9450
:103A2000E4148BE60E94590A88E70E94590A88E745
:103A30000E94590A88E70E94590A8FEC94E00E947C
:103A4000131186E78093F7048AEE94E0909326059D
:103A500080932505009324051092F6040E94C80E59
:103A6000883541F00E94C80E803621F08EEB94E03C
:103A70000E94131103E00E945B06683873418105C0
:103A8000910508F047C58DE494E00E94EA061816F7
:103A900019068CF78DE494E00E94C806813259F72C
:103AA00080EA94E00E9413116DE874E08DE494E0E4
:103AB0000E9468066BED71E08DE494E00E94ED11C8
:103AC00069E774E08DE494E00E94680681EE91E07D
:103AD0000E948B1168EE71E08DE494E00E94ED117C
:103AE0006EEE72E080E090E00E94290683E60E947C
:103AF000590A113509F409C58DE494E00E94EA06DB
:103B0000892BB9F38DE494E00E94C806182F813206
:103B100009F586E694E00E94131163E574E08DE4F4
:103B200094E00E9468066BED71E08DE494E00E94E1
:103B3000ED116FE374E08DE494E00E94680681EE7D
:103B400091E00E948B1168EE71E08DE494E00E9498
:103B5000ED11CFCF823509F0F6C10E94E41481E067
:103B600090E00E94790761EE71E08DE494E00E949C
:103B7000831189E090E00E94790765E473E08DE4A9
:103B800094E00E94831189E090E00E94790780917F
:103B90004C03082E000C990B0E94790789E090E0F5
:103BA0000E9479076DE473E08DE494E00E94831134
:103BB00089E090E00E94790780915403082E000C60
:103BC000990B0E94790789E090E00E94790765E5EA
:103BD00073E08DE494E00E94831189E090E00E94FC
:103BE000790780915C03082E000C990B0E947907DD
:103BF00089E090E00E9479076DE573E08DE494E040
:103C00000E94831189E090E00E947907809164030B
:103C1000082E000C990B0E94790789E090E00E9421
:103C2000790780916503909166030E94E71189E00E
:103C300090E00E94790780916703082E000C990B91
:103C40000E94790789E090E00E94790780916803DB
:103C5000082E000C990B0E94790789E090E00E94E1
:103C60007907809169030E94E01189E090E00E9449
:103C7000790760916A0370916B0380916C03909156
:103C80006D034AE00E949E1189E090E00E9479074E
:103C900080917E0390917F030E94E71189E090E07C
:103CA0000E94790780918003909181030E94E7111F
:103CB00089E090E00E94790760918203709183030C
:103CC00080918403909185034AE00E949E1189E0CF
:103CD00090E00E947907609186037091870380913C
:103CE0008803909189034AE00E949E1189E090E048
:103CF0000E94790760918A0370918B0380918C03F5
:103D000090918D034AE00E949E1189E090E00E940C
:103D1000790780916E0390916F030E94E71189E00B
:103D200090E00E94790780917003909171030E9446
:103D3000E71189E090E00E94790760917203709129
:103D4000730380917403909175034AE00E949E1161
:103D500089E090E00E947907609176037091770383
:103D600080917803909179034AE00E949E1189E046
:103D700090E00E94790760917A0370917B038091B3
:103D80007C0390917D034AE00E949E1189E090E0BF
:103D90000E94790780918E030E94E01189E090E0F3
:103DA0000E94790780918F030E94E01189E090E0E2
:103DB0000E94790764E973E08DE494E00E94831126
:103DC00089E090E00E9479078091BD036CEE71E07C
:103DD000811102C06FED71E08DE494E00E948311C7
:103DE00089E090E00E9479078091BE036CEE71E05B
:103DF000811102C06FED71E08DE494E00E948311A7
:103E000089E090E00E9479078091BF036CEE71E039
:103E1000811102C06FED71E08DE494E00E94831186
:103E200089E090E00E9479078091C0036CEE71E018
:103E3000811102C06FED71E08DE494E00E94831166
:103E400089E090E00E9479078091C1036CEE71E0F7
:103E5000811102C06FED71E08DE494E00E94831146
:103E600089E090E00E9479078091C2036CEE71E0D6
:103E7000811102C06FED71E08DE494E00E94831126
:103E800089E090E00E9479078091C3030E94E011CD
:103E900089E090E00E9479078091C4039091C50366
:103EA0000E94E71189E090E00E9479078091C603A3
:103EB0006CEE71E0811102C06FED71E08DE494E071
:103EC0000E94831189E090E00E94790767EC73E01B
:103ED0008DE494E00E94831189E090E00E947907CC
:103EE00060ED73E08DE494E00E94831189E090E03E
:103EF0000E947907809191030E94E01189E090E08F
:103F00000E947907809192036CEE71E0811102C0EA
:103F10006FED71E08DE494E00E94831189E090E000
:103F20000E947907809193030E94E01189E090E05C
:103F30000E947907809190030E94E01184E090E054
:103F40000E94790700CE873509F0A6C281E294E08D
:103F50000E9413110E945B066B017C01E0E1CE0E12
:103F6000E7E2DE1EE11CF11C0E945B066C157D057C
:103F70008E059F0560F58DE494E00E94EA06892B8A
:103F8000D1F38DE494E00E94C806019769F786E5B5
:103F900093E00E9413116DE270E0CE0101960E9441
:103FA000261161EE71E0CE0101960E94512F892BFE
:103FB00099F084E393E00E9413116CE273E08DE4C6
:103FC00094E00E946806CE0101960E948B118AEB54
:103FD00093E00E941311B7CD67E070E0CE01019627
:103FE0000E942611BE016F5F7F4F85E493E00E941F
:103FF0005A2F61E070E0CE0101960E94261189815E
:1040000080934C0367E070E0CE0101960E94261178
:10401000BE016F5F7F4F8DE493E00E945A2F61E0F5
:1040200070E0CE0101960E9426118981809354038D
:1040300067E070E0CE0101960E942611BE016F5F1D
:104040007F4F85E593E00E945A2F61E070E0CE013A
:1040500001960E942611898180935C0367E070E0DD
:10406000CE0101960E942611BE016F5F7F4F8DE544
:1040700093E00E945A2F61E070E0CE0101960E9409
:1040800026118981809364036DE270E0CE01019670
:104090000E942611CE0101960E94E62890936603A5
:1040A0008093650361E070E0CE0101960E942611C5
:1040B00089818093670361E070E0CE0101960E94E0
:1040C00026118981809368036DE270E0CE0101962C
:1040D0000E942611CE0101960E94E6288093690372
:1040E0006DE270E0CE0101960E942611CE0101968C
:1040F0000E94E628092E000CAA0BBB0B80936A03D2
:1041000090936B03A0936C03B0936D036DE270E02A
:10411000CE0101960E942611CE0101960E94E6284A
:1041200090937F0380937E036DE270E0CE01019651
:104130000E942611CE0101960E94E62890938103E9
:10414000809380036DE270E0CE0101960E942611FB
:10415000CE0101960E94E628092E000CAA0BBB0B8B
:104160008093820390938303A0938403B093850389
:104170006DE270E0CE0101960E942611CE010196FB
:104180000E94E628092E000CAA0BBB0B8093860325
:1041900090938703A0938803B09389036DE270E046
:1041A000CE0101960E942611CE0101960E94E628BA
:1041B000092E000CAA0BBB0B80938A0390938B03F0
:1041C000A0938C03B0938D036DE270E0CE01019655
:1041D0000E942611CE0101960E94E62890936F035B
:1041E00080936E036DE270E0CE0101960E9426116D
:1041F000CE0101960E94E62890937103809370038C
:104200006DE270E0CE0101960E942611CE0101966A
:104210000E94E628092E000CAA0BBB0B80937203A8
:1042200090937303A0937403B09375036DE270E0F1
:10423000CE0101960E942611CE0101960E94E62829
:10424000092E000CAA0BBB0B809376039093770387
:10425000A0937803B09379036DE270E0CE010196EC
:104260000E942611CE0101960E94E628092E000C1C
:10427000AA0BBB0B80937A0390937B03A0937C03E0
:10428000B0937D036DE270E0CE0101960E9426118D
:10429000CE0101960E94E62880938E036DE270E0C5
:1042A000CE0101960E942611CE0101960E94E628B9
:1042B00080938F036DE270E0CE0101960E9426117B
:1042C000BE016F5F7F4F84E993E00E945A2F6DE239
:1042D00070E0CE0101960E94261181E09981913310
:1042E00009F080E08093BD036DE270E0CE0101969D
:1042F0000E94261181E09981913309F080E080933A
:10430000BE036DE270E0CE0101960E94261181E0AD
:104310009981913309F080E08093BF036DE270E0F2
:10432000CE0101960E94261181E09981913309F016
:1043300080E08093C0036DE270E0CE0101960E94A0
:10434000261181E09981913309F080E08093C103C7
:104350006DE270E0CE0101960E94261181E0998104
:10436000913309F080E08093C2036DE270E0CE01EA
:1043700001960E942611CE0101960E94E6288093A4
:10438000C3036DE270E0CE0101960E942611CE01BA
:1043900001960E94E6289093C5038093C4036DE2C2
:1043A00070E0CE0101960E942611CE0101960E9476
:1043B000E62821E0892B09F420E02093C60369E078
:1043C00070E0CE0101960E942611BE016F5F7F4F03
:1043D00087EC93E00E945A2F69E070E0CE010196CD
:1043E0000E942611BE016F5F7F4F80ED93E00E9417
:1043F0005A2F6DE270E0CE0101960E942611CE0187
:1044000001960E94E628809391036DE270E0CE0150
:1044100001960E942611CE0101960E94E62821E015
:10442000892B09F420E0209392036DE270E0CE0125
:1044300001960E942611CE0101960E94E6288093E3
:1044400093036DE270E0CE0101960E942611CE0129
:1044500001960E94E62880939003E5E4F3E090E063
:1044600080E02191820F911D27FD9A9523E0EC3485
:10447000F207B9F79093DA038093D9038DEF93E0B5
:104480000E9413110E940A1483EE93E00E941311FC
:1044900087E70E94590A57CB843439F48BEA93E0BA
:1044A0000E9413110E942114F3CF843509F02DC608
:1044B0008DE993E00E9413118091C3038093FC0562
:1044C0002091C4033091C5033093FE052093FD0570
:1044D0009091C6039093FF05813011F40E94B212AF
:1044E0008AE892E00E94170A61E08091FA050E9432
:1044F0002F0568E873E180E090E00E94290660E003
:104500008091FA050E942F051ECB81E693E00E9460
:104510001311B1CA0E94E41484E0809369038AE015
:1045200090E0A0E0B0E080936A0390936B03A093C7
:104530006C03B0936D038091C3038093FC052091BD
:10454000C4033091C5033093FE052093FD0590917F
:10455000C6039093FF05813011F40E94B21201E06E
:104560002091640340915C0360914C03809154035B
:104570000E94BD038EEE91E00E9437048BED91E026
:104580000E94370482E192E00E9437040E94EF11FA
:1045900080919303813009F0BCC025EBB22E32E646
:1045A000A32E45E0942E8824839452E0752E66E075
:1045B000662E74E2572E0DE410E00C0F1D1F085FED
:1045C0001F4F1E018DE2280E311C88EC90E00E94E6
:1045D000170A2091920347E068E0CE018E960E9470
:1045E000AE0940E855E260E070E0CE018E960E9490
:1045F00001098CE2E0E0F1E0DE01119601900D92FC
:104600008A95E1F72E96BFAE2E972F96AFAE2F97D5
:1046100060969FAE609761968FAE619762967FAE0F
:10462000629763961FAE639764966FAE64976596C4
:104630005FAE659766961FAE669767961FAE6797E3
:10464000EDE4F0E0EC0FFD1F3296819166969FAD90
:104650006697890F66968FAF669767969FAD679747
:10466000890F67968FAF67970E171F0771F783EB58
:1046700094E00E9413116FEFCE018E960E946C0899
:1046800064EF71E080E090E00E942906FE0131961F
:104690007F01F70161917F01CE018E960E946C0827
:1046A0002E143F04B1F70E945B066B017C01F8EB0E
:1046B000CF0EFBE0DF1EE11CF11C412C0E945B06CB
:1046C0006C157D058E059F05C8F429E0241508F4B6
:1046D000CAC0CE018E960E94C808892B79F3CE01FC
:1046E0008E960E94E008EDE4F0E0EC0FFD1FE40D73
:1046F000F11D90819813E1CF4394E0CFF12CCE01CE
:104700008E960E949609FF2009F45FCF89E60E94E9
:10471000590A0E945B0660933803709339038093B3
:104720003A0390933B0385E6482E82E0582ECE0153
:1047300001963C01FE0138966996FFAFEEAF69978E
:1047400008966B969FAF8EAF6B979CE6292E92E0F2
:10475000392E0E942815C0909206D0909306E090C2
:104760009406F090950698ECC90E9FEAD91EE11CBC
:10477000F11C0E945B06C616D706E806F90698F5F6
:10478000C0903803D0903903E0903A03F0903B0397
:10479000E8ECCE0EEFEADE1EE11CF11C0E945B0687
:1047A000C616D706E806F906F0F487E60E94590A0D
:1047B00001E02091640340915C0360914C0380917F
:1047C00054030E94BD0383E292E00E9437040E94DA
:1047D000EF110E945B066093380370933903809356
:1047E0003A0390933B0310919F06C12CD12C760184
:1047F000112341F0C0907F06D0908006E0908106A2
:10480000F09082068090340390903503A090360398
:10481000B0903703A7019601C501B4010E947D2A1B
:1048200087FF24C0C0923403D0923503E092360350
:10483000F092370380916903823009F426C2A0F513
:10484000882309F47AC0813009F437C180E090E010
:10485000892B09F47ECF0E94F606882309F479CFCC
:104860000E94000076CFFF24F39449CF20E030E48B
:104870004CE156E4C501B4010E94742D1816D4F61B
:1048800020E030E04AE753E4C501B4010E940B2C5C
:104890009B01AC01C701B6010E947D2A87FFCACFE8
:1048A00081E080933303C6CF833009F47CC2843027
:1048B00069F620916A0330916B0340916C0350912B
:1048C0006D03A8EEB3E00E94BA2B6B017C010E943D
:1048D0005B0600912F03109130032091310330913A
:1048E0003203601B710B820B930BC616D706E806CA
:1048F000F90608F0ABCF0E941E05BC01990F880B8A
:10490000990B0E94842A26E636E24BE953E40E9482
:10491000782C25E236E049E450E40E94E32A26E6BA
:1049200036E646E650E40E94742D18160CF060C27C
:1049300082E492E00E948B1122C020916A033091A0
:104940006B0340916C0350916D03A8EEB3E00E949D
:10495000BA2B6B017C010E945B0600912F03109122
:1049600030032091310330913203601B710B820BB5
:10497000930BC616D706E806F90608F067CF8091B4
:10498000C103811104C08091C0038823B1F00E944B
:10499000AD0B20E030E048EC52E40E94782CA79662
:1049A0006CAF7DAF8EAF9FAFA7970E94AD0DA39662
:1049B0006CAF7DAF8EAF9FAFA39780919F06C12C48
:1049C000D12C7601882341F0C0907F06D0908006DC
:1049D000E0908106F0908206609165037091660315
:1049E00090E080E00E94822A01E0A70196010E94E7
:1049F000742D18160CF000E02091640340915C03C4
:104A000060914C03809154030E94BD0380919F06E6
:104A1000811105C080919E06882309F4EEC1D090D3
:104A20009606C0909706F0909806E090990610912F
:104A30009A0600919B0683E692E00E943704CF928B
:104A4000DF925F924F927F926F920E94702FC3010C
:104A50000E943704EF92FF925F924F927F926F9283
:104A60000E94702FC3010E9437040F931F935F921F
:104A70004F927F926F920E94702FC3010E94370461
:104A80008AE692E00E94370419820FB6F894DEBFDE
:104A90000FBECDBF80919F06811105C080919E06FB
:104AA000882309F4B1C1AFE5B6E0F3018D91181682
:104AB0000CF0AAC181931082F9CF80919E068823C1
:104AC00009F4DEC0D0908306E0908406F09085065D
:104AD000009186062D2D3E2D4F2D502F6C966FADDB
:104AE0006C976D967FAD6D976E968FAD6E976F9646
:104AF0009FAD6F970E947D2A87FF0CC06C96DFAE3A
:104B00006C976D96EFAE6D976E96FFAE6E976F9643
:104B10000FAF6F9760917E0370917F0390E080E00C
:104B20000E94822A6C962FAD6C976D963FAD6D9763
:104B30006E964FAD6E976F965FAD6F970E94742D16
:104B4000181614F520918203309183034091840359
:104B500050918503A8EEB3E00E94BA2B4B015C0193
:104B60000E945B0620912F03309130034091310366
:104B700050913203621B730B840B950B11E0861668
:104B80009706A806B90608F010E060917E037091C0
:104B90007F0390E080E00E94822A9B01AC016D2D92
:104BA0007E2D8F2D902F0E94742D87FD32C0609135
:104BB00080037091810390E080E00E94822A2D2D75
:104BC0003E2D4F2D502F0E94742D181614F5209154
:104BD0008603309187034091880350918903A8EEA2
:104BE000B3E00E94BA2B4B015C010E945B0620914E
:104BF0002F03309130034091310350913203621BF7
:104C0000730B840B950B86169706A806B90608F455
:104C100011E0609180037091810390E080E00E9438
:104C2000822A9B01AC016D2D7E2D8F2D902F0E942D
:104C3000742D87FD22C020918A0330918B0340910F
:104C40008C0350918D03A8EEB3E00E94BA2B6B0148
:104C50007C010E945B0680902F0390903003A0900F
:104C60003103B0903203681979098A099B09C61685
:104C7000D706E806F90608F482CE111180CEE6CDFB
:104C8000D12CE12CF12C00E025CF60916E037091C6
:104C90006F0390E080E00E94822A9B01AC01C70173
:104CA000B6010E947D2A87FF22C0209172033091B5
:104CB00073034091740350917503A8EEB3E00E9412
:104CC000BA2B4B015C010E945B0600912F031091EF
:104CD00030032091310330913203601B710B820B42
:104CE000930B11E086169706A806B90608F010E0A7
:104CF00060916E0370916F0390E080E00E94822AC1
:104D00009B01AC01C701B6010E94742D87FD32C022
:104D1000609170037091710390E080E00E94822A9C
:104D20009B01AC01C701B6010E947D2A87FF22C00A
:104D30002091760330917703409178035091790365
:104D4000A8EEB3E00E94BA2B4B015C010E945B0607
:104D500020912F0330913003409131035091320361
:104D6000621B730B840B950B86169706A806B90673
:104D700008F411E0609170037091710390E080E09D
:104D80000E94822A9B01AC01C701B6010E94742DCA
:104D900087FD73CF20917A0330917B0340917C0390
:104DA00050917D0350CF111106C080919E062CE9D1
:104DB0003FEF882321F020919A0630919B06809145
:104DC0008E0390E08217930709F4D9CD01968217DC
:104DD000930709F4D4CD80918F0390E08217930755
:104DE00009F4CDCD01968217930709F02FCDC7CDD9
:104DF0008FE492E00E948B1129CD10E000E0F12CAD
:104E0000E12CD12CC12C17CE83017301F7018191C4
:104E10007F01882349F00E94A60369968EAD9FAD5D
:104E20006997E816F90691F780919F06811104C0F1
:104E300080919E068823D1F080916B060E94A60384
:104E4000809168030E94A603198280919F068111B8
:104E500004C080919E06882359F0ACE6B6E0F301C9
:104E60008D9118162CF481931082FACF80E2E6CF50
:104E7000F80181918F01882349F00E94A6036B9667
:104E80008EAD9FAD6B978017910791F780919F062C
:104E9000811105C080919E06882309F422C180916A
:104EA00079060E94A603809167030E94A603809161
:104EB0009E06882309F417C16091870670918806C1
:104EC0008091890690918A060E94EA2C7F936F93C5
:104ED0003F922F927F926F920E94702FC3010E9487
:104EE00037048FE20E94A6030F900F900F900F904F
:104EF0000F900F9080919E06882309F4F8C060916E
:104F000083067091840680918506909186060E94A2
:104F1000EA2C7F936F933F922F927F926F920E9421
:104F2000702FC3010E94370481E792E00E9437048A
:104F30000F900F900F900F900F900F9080919F0601
:104F4000882309F4D8C028E439EF41E550E46091A2
:104F50007F067091800680918106909182060E9462
:104F6000E32A0E94EA2C41E00E9443048091BD03A1
:104F7000882361F180919F06882341F080917A0611
:104F800090917B060197039708F4B9C085E792E0FA
:104F90000E94370480919F06882309F4B3C0809152
:104FA0007D0690917E069F938F93EDE7F2E0FF934D
:104FB000EF937F926F920E94702FC3010E9437047B
:104FC0000F900F900F900F900F900F908091BF0354
:104FD0008823D1F084E892E00E9437040E941E05E5
:104FE000BC01990F880B990B0E94842A26E636E2B1
:104FF0004BE953E40E94782C25E236E049E450E482
:105000000E94E32A0E94D5048091C003882361F0A6
:1050100089E892E00E943704A3966CAD7DAD8EAD19
:105020009FADA3970E94D5048091C103882361F0AE
:105030008FE892E00E943704A7966CAD7DAD8EADEF
:105040009FADA7970E94D5048091BE038823D9F015
:10505000809133038823B9F087E992E00E943704F6
:1050600028E439EF41E550E4609134037091350351
:1050700080913603909137030E94E32A0E94EA2C24
:1050800041E00E94430480E20E94A60384E993E089
:105090000E9437040E94EF110E945B0660932F0369
:1050A00070933003809331039093320362EE74E087
:1050B00080E090E00E94290680919F06882369F095
:1050C00080917A0690917B06892B39F080917D063C
:1050D00090917E0604970CF0B9CB8CE60E94590A99
:1050E000B5CB80E2DECE60E070E0CB01EDCE60E0DB
:1050F00070E0CB010CCF60E070E0CB0132CF89E7EC
:1051000092E046CF80E090E04ECF853411F00C94D1
:10511000A31D84E993E00E9413118DE893E00E949F
:1051200013110093900388E70E94590A0E941E05FC
:10513000BC01990F880B990B0E94842A2DEC3CEC42
:105140004CE453E40E94782C25E236E049E450E434
:105150000E94E32A6B017C0166E873E08DE494E031
:105160000E9468062CE53FE842E45EE3C701B60111
:105170000E940C2C0E943E130E9428150E94AD0B29
:105180004B015C010E94AD0D6B017C0160E873E096
:105190008DE494E00E946806C701B6010E943E13A8
:1051A00068E773E08DE494E00E94680620E030E058
:1051B00048EC52E4C501B4010E94782C0E943E13D1
:1051C0000C94A31D662777270C940C29FC018827D3
:1051D0009927E89421912032E9F3293010F02E30FC
:1051E000C8F32B3241F02D3239F4689404C00E9488
:1051F0000429820F911D219120532A30C0F31EF4FF
:10520000909581959F4F08957AE0979F902D879F65
:10521000802D910D11240895B0E0A0E0E2E1F9E2C3
:105220000C94CB2B5C017B016115710519F0DB013E
:105230008D939C9385010F5F1F4FF501D0818D2FBA
:1052400090E00E945C2A6C01892BB9F5DD32B9F53A
:105250000F5F1F4FD5011196DC91C1E05801F1E0BD
:10526000AF1AB10843E050E060E770E0C5010E946A
:10527000652A892B69F5680182E0C80ED11C45E0DA
:1052800050E06BE670E0C6010E94652A892B21F48C
:10529000680197E0C90ED11CE114F10419F0D7019F
:1052A000CD92DC9260E070E080E89FEFC111FFC01A
:1052B00060E070E080E89FE7FAC05801BBCFDB32C6
:1052C00029F485010E5F1F4FF501D181C0E0C6CFE3
:1052D00043E050E068E670E0C5010E94652A892B32
:1052E000E9F0F80110E000E020E030E0A9015F0102
:1052F000B0ED8B2E8D0E89E08815C8F19C2E689438
:1053000091F88C2F8870C2FF16C0811102C00F5F08
:105310001F4F3196D501DC91C92DE9CFE114F1047D
:1053200029F00E5F1F4FF7011183008360E070E0EA
:1053300080EC9FE7BCC0882311F001501109A5E063
:10534000B0E00E94BA2B9B01AC01220F331F441F17
:10535000551F280D311D411D511D283999E9390767
:10536000490799E15907A8F2C6609C2ED2CFAEEF4B
:105370008A1206C0C3FD3CC09C2E689493F8C9CF26
:10538000DF7DD534A9F580818D3239F4C061DF012C
:105390001296818162E070E006C0DF018B32C1F3BA
:1053A000119661E070E080535D01A61AB70A8A3059
:1053B000F8F4E0E8CE16ECE0DE065CF4B601660F29
:1053C000771F660F771FC60ED71ECC0CDD1CC80ECC
:1053D000D11C5D01FFEFAF1ABF0A8C9180538A3058
:1053E000A8F1C4FF03C0D194C194D1080C0D1D1DB8
:1053F000C1FF09C0E114F10431F081E0A81AB1083D
:10540000D701AD92BC92CA01B9010E94822AC37031
:10541000C33009F490584B015C0120E030E0A90151
:105420000E947D2A882309F440C0CFE9D0E017FF0D
:1054300005C0119501951109C7E8D0E06E01B8E1EA
:10544000CB1AD10880E2E82EF12C0FC0D501B1CFE4
:10545000FE0125913591459154910E191F09C50101
:10546000B4010E94E32A4B015C01D501C4010E1571
:105470001F0574F72497F594E794CC16DD06A9F779
:105480008A2F880F8B2F881F8F3F49F020E030E054
:10549000A901C501B4010E947D2A811106C082E2E2
:1054A00090E09093A4068093A306C501B401CDB704
:1054B000DEB7ECE00C94E72B91110C94502B80326A
:1054C00019F089508550C8F70895FB01DC0141505F
:1054D000504088F08D9181341CF08B350CF4805E47
:1054E000659161341CF06B350CF4605E861B6111B4
:1054F00071F3990B0895881BFCCF0E94BF2A08F412
:1055000081E00895E89409C097FB3EF4909580955A
:10551000709561957F4F8F4F9F4F9923A9F0F92F79
:1055200096E9BB279395F695879577956795B795F7
:10553000F111F8CFFAF4BB0F11F460FF1BC06F5FDD
:105540007F4F8F4F9F4F16C0882311F096E911C0EF
:10555000772321F09EE8872F762F05C0662371F010
:1055600096E8862F70E060E02AF09A95660F771F24
:10557000881FDAF7880F9695879597F90895990F00
:105580000008550FAA0BE0E8FEEF16161706E8070D
:10559000F907C0F012161306E407F50798F0621B2E
:1055A000730B840B950B39F40A2661F0232B242B03
:1055B000252B21F408950A2609F4A140A6958FEF22
:1055C000811D811D08950E94F62A0C946A2B0E9469
:1055D0005C2B38F00E94632B20F0952311F00C9483
:1055E000532B0C94592B11240C949E2B0E947B2B33
:1055F00070F3959FC1F3950F50E0551F629FF00126
:10560000729FBB27F00DB11D639FAA27F00DB11D3E
:10561000AA1F649F6627B00DA11D661F829F2227C7
:10562000B00DA11D621F739FB00DA11D621F839F4E
:10563000A00D611D221F749F3327A00D611D231F24
:10564000849F600D211D822F762F6A2F11249F5772
:1056500050409AF0F1F088234AF0EE0FFF1FBB1F75
:10566000661F771F881F91505040A9F79E3F510534
:1056700080F00C94532B0C949E2B5F3FE4F3983EE8
:10568000D4F3869577956795B795F795E7959F5FDE
:10569000C1F7FE2B880F911D9695879597F9089570
:1056A00099278827089597F99F6780E870E060E060
:1056B00008959FEF80EC089500240A9416161706AB
:1056C00018060906089500240A94121613061406F3
:1056D00005060895092E0394000C11F4882352F056
:1056E000BB0F40F4BF2B11F460FF04C06F5F7F4F0E
:1056F0008F4F9F4F089557FD9058440F551F59F0F5
:105700005F3F71F04795880F97FB991F61F09F3FAE
:1057100079F087950895121613061406551FF2CFD7
:105720004695F1DF08C0161617061806991FF1CF27
:1057300086957105610508940895E894BB2766274E
:105740007727CB0197F90895F999FECF92BD81BDD6
:10575000F89A992780B50895262FF999FECF1FBA98
:1057600092BD81BD20BD0FB6F894FA9AF99A0FBE8A
:10577000019608950E94FC2BA59F900DB49F900D5B
:10578000A49F800D911D112408952F923F924F9256
:105790005F926F927F928F929F92AF92BF92CF92C1
:1057A000DF92EF92FF920F931F93CF93DF93CDB7CA
:1057B000DEB7CA1BDB0B0FB6F894DEBF0FBECDBF42
:1057C00009942A88398848885F846E847D848C8413
:1057D0009B84AA84B984C884DF80EE80FD800C811C
:1057E0001B81AA81B981CE0FD11D0FB6F894DEBFFF
:1057F0000FBECDBFED010895A29FB001B39FC001C0
:10580000A39F700D811D1124911DB29F700D811DEC
:105810001124911D08955058BB27AA270E94232CBC
:105820000C946A2B0E945C2B38F00E94632B20F0B2
:1058300039F49F3F19F426F40C94592B0EF4E0959B
:10584000E7FB0C94532BE92F0E947B2B58F3BA17DC
:10585000620773078407950720F079F4A6F50C9486
:105860009D2B0EF4E0950B2EBA2FA02D0B01B90144
:1058700090010C01CA01A0011124FF27591B99F0C6
:10588000593F50F4503E68F11A16F040A22F232FD2
:10589000342F4427585FF3CF469537952795A79522
:1058A000F0405395C9F77EF41F16BA0B620B730BC9
:1058B000840BBAF09150A1F0FF0FBB1F661F771F3A
:1058C000881FC2F70EC0BA0F621F731F841F48F4EF
:1058D000879577956795B795F7959E3F08F0B0CF78
:1058E0009395880F08F09927EE0F9795879508955F
:1058F0000E948C2C0C946A2B0E94632B58F00E94FF
:105900005C2B40F029F45F3F29F00C94532B51118C
:105910000C949E2B0C94592B0E947B2B68F399239B
:10592000B1F3552391F3951B550BBB27AA2762179B
:105930007307840738F09F5F5F4F220F331F441FA8
:10594000AA1FA9F335D00E2E3AF0E0E832D09150DC
:105950005040E695001CCAF72BD0FE2F29D0660FC9
:10596000771F881FBB1F261737074807AB07B0E80C
:1059700009F0BB0B802DBF01FF2793585F4F3AF012
:105980009E3F510578F00C94532B0C949E2B5F3F57
:10599000E4F3983ED4F3869577956795B795F79598
:1059A0009F5FC9F7880F911D9695879597F9089580
:1059B000E1E0660F771F881FBB1F6217730784071C
:1059C000BA0720F0621B730B840BBA0BEE1F88F72B
:1059D000E09508950E94F12C6894B1110C949E2BCF
:1059E00008950E94832B88F09F5798F0B92F99272C
:1059F000B751B0F0E1F0660F771F881F991F1AF0BA
:105A0000BA95C9F714C0B13091F00E949D2BB1E056
:105A100008950C949D2B672F782F8827B85F39F055
:105A2000B93FCCF3869577956795B395D9F73EF452
:105A300090958095709561957F4F8F4F9F4F0895FA
:105A400097FB16F40E94642D0C94272DE894F92FEF
:105A500096EBFF2381F0121613061406440B939560
:105A6000F69587957795679557954040FF23B9F749
:105A70001BC099270895882351F49850D2F7872B9B
:105A8000762F652F542F432F322F20E0B1F31216BB
:105A900013061406440B88233AF09A95440F551FB9
:105AA000661F771F881FCAF755234AF4440F551FF6
:105AB00011F460FF04C06F5F7F4F8F4F9F4F880FBF
:105AC0009695879597F9089590958095709560952E
:105AD00050954095309521953F4F4F4F5F4F6F4FF9
